:020000040000FA
:10000000700200106901000071010000730100001E
:100010007501000077010000790100000000000078
:100020000000000000000000000000007B01000054
:100030007D010000000000007F0100008101000040
:1000400083010000830100008301000083010000A0
:100050008301000083010000830100008301000090
:100060008301000083010000830100008301000080
:100070008301000083010000830100008301000070
:100080008301000083010000830100008301000060
:100090008301000083010000830100008301000050
:1000A0008301000083010000830100008301000040
:1000B0008301000083010000830100008301000030
:1000C00083010000830100008301000000F002F8BA
:1000D00000F03AF80AA090E8000C82448344AAF1A8
:1000E0000107DA4501D100F02FF8AFF2090EBAE8A6
:1000F0000F0013F0010F18BFFB1A43F0010318475C
:10010000FC0900001C0A0000103A24BF78C878C11E
:10011000FAD8520724BF30C830C144BF04680C600D
:10012000704700000023002400250026103A28BF55
:1001300078C1FBD8520728BF30C148BF0B60704759
:100140001FB51FBD10B510BD00F0AFF81146FFF789
:10015000F7FF00F045F800F0D6FA03B4FFF7F2FF1E
:1001600003BC00F0D7FA000009488047094800475F
:10017000FEE7FEE7FEE7FEE7FEE7FEE7FEE7FEE757
:10018000FEE7FEE704480549034A054B70470000B7
:10019000A9040000CD0000007000001070020010E3
:1001A0007000001002204FF040214860C8603120EC
:1001B0008861002008672020C8630420486101206E
:1001C00048607047022030494860C860002088615C
:1001D00008671020C863002048610120486070470C
:1001E00000F062F900F08CF82848006820F04040E8
:1001F000264908600846406820F0300048602448DE
:10020000006840F40040224908600846006820F475
:100210008030086036E04FF400401D498861FFF7E8
:10022000C1FF00BF4FF04020C06B10F0010FF9D0AC
:1002300002204FF04021486080031549C86100BF8B
:100240001348406910F4803FFAD0FFF7BBFF00BFAE
:100250000F48406910F4803FFAD100200A494860F5
:10026000084680680B4908600846006800F0DFFB1C
:100270000646094A094B00F055FA044600F0AAFB6D
:1002800007490860C7E700000080004000C0024046
:1002900000C0092000000010295C8FC2F5684D40A5
:1002A00004000010704770477047754600F022F850
:1002B000AE4605006946534620F00700854618B053
:1002C00020B5FFF75FFFBDE820404FF000064FF07C
:1002D00000074FF000084FF0000B21F00701AC467B
:1002E000ACE8C009ACE8C009ACE8C009ACE8C0099A
:1002F0008D467047004870470C000010FFFFFFFF5D
:100300002DE9F047B1480068C0F3016003287CD1B3
:10031000AF48006810F0030006D0012833D002284F
:100320005FD003282ED100E000BFA8480068C0F3CA
:10033000074000F101044FF00201A648D0F8880000
:10034000C0F30E0000F10100A1FB0001A24B4FF031
:10035000000CA0FB037901FB039100FB0C1122466A
:100360006346384600F058F905469C480068C0B21C
:1003700000F1010422464FF00003284600F04CF93A
:10038000974908605DE091480068C0F3074000F1BC
:1003900001044FF002018F48D0F88800C0F30E002E
:1003A00000F10100A1FB00108E4A4FF0000CA1FBF0
:1003B000027900FB029001FB0C012246634638469D
:1003C00000F02AF9054685480068C0B200F1010432
:1003D00022464FF00003284600F01EF980490860CD
:1003E0002FE07A480068C0F3074000F101044FF0A5
:1003F00002017848D0F88800C0F30E0000F1010037
:10040000A1FB00124FF4004000E01BE04FF000039E
:10041000A1FB007902FB009001FB03012246384654
:1004200000F0FAF805466D480068C0B200F101041A
:1004300022464FF00003284600F0EEF868490860B5
:1004400000BF2FE06248006810F0030006D00128CA
:1004500010D0022819D0032823D100E000BF5F4844
:100460000068C0B200F101005B49B1FBF0F05C49EB
:10047000086016E059480068C0B200F1010059490F
:10048000B1FBF0F0564908600BE054480068C0B278
:1004900000F101004FF40041B1FBF0F05049086059
:1004A00000BF00BFBDE8F08720204F4908604948E1
:1004B000D0F8A00110F0200F05D000BF4A48006816
:1004C00010F0400FFAD00320444908604FF00000BC
:1004D0004049C1F8A801454908604FF001003C4976
:1004E00008604348434908604FF0AA004249086049
:1004F0004FF0550008604FF00100404908604FF090
:10050000AA003D4908604FF055003249C1F88C00FF
:1005100000BF2E48006810F0806FFAD003203749E2
:1005200008604FF0AA002B49C1F88C004FF055002D
:100530003149086000BF2548006800F04070B0F104
:10054000407FF8D123202E4908604FF0AA002149AE
:10055000C1F8AC004FF055002A4908604FF0010087
:10056000294908604FF0AA00264908604FF055005D
:100570001849C1F8AC0000BF2448006810F4806F2F
:10058000FAD00320204908604FF0AA001149C1F8B1
:10059000AC004FF055001B49086000BF1B480068C5
:1005A00000F44070B0F5407FF8D11948194908604F
:1005B0004FF000000749C1F8C8010846006820F460
:1005C000704040F4804008607047000088C00F40D1
:1005D0000CC10F4000C00F4000093D0004C10F4096
:1005E00008000010001BB700A0C10F40ACC10F40B5
:1005F0006300050084C00F408CC00F4080C00F40D6
:10060000A4C00F40ACC00F40A0C00F40A8C00F4016
:10061000DE872804C4C00F4053EA020C00F0698052
:100620002DE9F04B4FF00006002B1FBFB3FA83F506
:1006300003FA05F424FA05F65E4012BF1643B2FA37
:1006400082F502FA05F4C5F120051EBF22FA05FC69
:1006500044EA0C04203556EA044C4FEA144418BF0F
:10066000641C4FF000084FF00009904271EB030C3E
:1006700039D3002919BFB1FA81F701FA07F6B0FAA8
:1006800080F700FA07F6C7F120071EBF20FA07FC23
:1006900046EA0C062037B6FBF4FCA7EB0507103F33
:1006A00007F01F0BCBF120060CFA0BFB2CFA06F619
:1006B00044BFB3460026202FA4BF5E464FF0000B78
:1006C0005BEA060C08BF4FF0010B19EB0B09ABFB03
:1006D000027C48EB0608C01B06FB02CC0BFB03CCDC
:1006E00071EB0C01C1E70B46024641464846BDE8A6
:1006F000F08B13B54FF000004FF00001AFF3008016
:10070000BDE81C4070470446AFF300802046FFF769
:1007100024FD000001491820ABBEFEE726000200C0
:10072000704700002DE9C04130B4DFF8A0C23CEAB8
:10073000111418BF3CEA131400F0EC8081EA0305A1
:100740001CEA111444EAD57418BF1CEA131500F012
:10075000C780A4EB05044FF0004545EAC12145EAF6
:10076000C32341EA505143EA525304F17F74994242
:1007700004F500344FEAC0204FEAC22208BF90427D
:1007800000F09C804FEA13650FF24016765D4FEA49
:10079000134506FB05F7C7F1807706FB07F74FEA1D
:1007A000D737A7FB03687642C8F58038A7FB06CE8B
:1007B00038BFA8F1010807FB08E64FF0000EA6FBC2
:1007C000028CE6FB03CEDCF1000CCEF1004E38BF0C
:1007D000AEF1010EA6FB0C584FF000074FF00005DC
:1007E000E6FB0E87A1FB08C6A0FB07CE16EB0E06A4
:1007F00045F10005E1FB076515F1E04E7EBFA4F56C
:1008000080345FEA46066D4116F1800745F1000528
:100810004FEA17274FEA066647EA0567A6F1DE4664
:10082000B6F1805F4FEA15251FD9384624F0010C38
:1008300005EBC471BCF1FE6F01EB0C1102D8F0BCEA
:10084000BDE8008124425CBF01F5801E9EEAC47FA2
:1008500002D4F0BCBDE80081244238D4F0BCA1F140
:10086000C041BDE8004100F043B94FEAD22242EA5C
:1008700043524FEAD323A7FB02864FEAD02040EA37
:10088000415007FB03661EEA0E0F4FEAD12105FB1C
:10089000026658BFA6EB0056B6EB00564FEA520E62
:1008A0004EEAC37E18EB0E0E56EB530EBDD518EB79
:1008B00002085E417F1C55F10005B6E74FF4801534
:1008C0004FF000074FF000064FF00008ADE7F0BC16
:1008D0004FF0000001F1C04101F00041BDE800818E
:1008E00011EA0C1F0CEA131500D00CE013EA0C1FE0
:1008F00000F025804FF00000F0BC81EA030101F018
:100900000041BDE80081F0BCBDE8004181EA03017F
:1009100000F0EEB8F0BCBDE8004170B500F09AF808
:10092000097EFC3E00F007B881EA03014FF00000A9
:1009300001F00041704781EA030100F0D9B8F0BC32
:10094000BDE800414FF0000021497047FFFDFBF971
:10095000F7F5F4F2F0EEEDEBE9E8E6E4E3E1E0DEF2
:10096000DDDBDAD8D7D5D4D3D1D0CFCDCCCBCAC864
:10097000C7C6C5C4C2C1C0BFBEBDBCBBBAB9B8B78B
:10098000B6B5B4B3B2B1B0AFAEADACABAAA9A8A87E
:10099000A7A6A5A4A3A3A2A1A09F9F9E9D9C9C9B4C
:1009A0009A999998979796959594939392919190F7
:1009B0008F8F8E8E8D8C8C8B8B8A89898888878788
:1009C0008685858484838382828181800000FF07FD
:1009D0000000F87F4FEA1153A3F58063D3F11E03A3
:1009E000A8BFD3F1200C08DB4FF0004242EAC1223D
:1009F00052EA505232FA03F0704709420BD4102BDE
:100A0000C4BF0020704703F5787CBCF1FF3F05D0E0
:100A10004FF0FF3070474FF00000704770B500F0A6
:100A200019F800BF4992248000207047F0E7B0FA1F
:100A300080F310FA03F10AD0C3F11D0303F58063BC
:100A40004FEA41504FEA035202EBD12170474FF079
:100A5000000070470EF1020E2EF0030E5EF8046BDC
:100A6000364205D4012A43EB030515F5001F12D8C1
:100A7000012841EB010C1CF5001F0CD80ED14FEAE8
:100A8000D17C15F5001F0CEB4C0C0CF1020C08BFCF
:100A90004CEBD37C04E04FF0080C01E04FEAD37C30
:100AA0000CEB4C0526FA05F606F00706B6F1040C29
:100AB00006D20EEB860CBDE870404CF0010C60478E
:100AC000DFE80CF0090B02024FF000414FF000008C
:100AD000A1F5002170BD19461046012851EB010413
:100AE00018BFD4F5001484BF002001F0004170BD90
:100AF0000808A0F500114FEA310170471C0B0000F7
:100B0000000000100C00000008010000280B00008D
:100B10000C0000106402000024010000000000002E
:080B20000000000000E1F505F2
:04000005000000CD2A
:00000001FF
